{
  "contractName": "ConcertTickets",
  "abi": [
    {
      "inputs": [],
      "stateMutability": "nonpayable",
      "type": "constructor"
    },
    {
      "inputs": [],
      "name": "owner",
      "outputs": [
        {
          "internalType": "address",
          "name": "",
          "type": "address"
        }
      ],
      "stateMutability": "view",
      "type": "function",
      "constant": true
    },
    {
      "inputs": [
        {
          "internalType": "uint256",
          "name": "",
          "type": "uint256"
        }
      ],
      "name": "tickets",
      "outputs": [
        {
          "internalType": "uint256",
          "name": "price",
          "type": "uint256"
        },
        {
          "internalType": "address",
          "name": "owner",
          "type": "address"
        }
      ],
      "stateMutability": "view",
      "type": "function",
      "constant": true
    },
    {
      "inputs": [
        {
          "internalType": "uint256",
          "name": "_index",
          "type": "uint256"
        }
      ],
      "name": "purchaseTicket",
      "outputs": [],
      "stateMutability": "payable",
      "type": "function",
      "payable": true
    }
  ],
  "bytecode": "0x6080604052336000806101000a81548173ffffffffffffffffffffffffffffffffffffffff021916908373ffffffffffffffffffffffffffffffffffffffff16021790555034801561005057600080fd5b5060005b600a8110156100ec576064600182600a8110610073576100726100f2565b5b60020201600001819055506000600182600a8110610094576100936100f2565b5b6002020160010160006101000a81548173ffffffffffffffffffffffffffffffffffffffff021916908373ffffffffffffffffffffffffffffffffffffffff16021790555080806100e49061015a565b915050610054565b506101a2565b7f4e487b7100000000000000000000000000000000000000000000000000000000600052603260045260246000fd5b7f4e487b7100000000000000000000000000000000000000000000000000000000600052601160045260246000fd5b6000819050919050565b600061016582610150565b91507fffffffffffffffffffffffffffffffffffffffffffffffffffffffffffffffff820361019757610196610121565b5b600182019050919050565b6103a0806101b16000396000f3fe6080604052600436106100345760003560e01c806350b44712146100395780638da5cb5b14610077578063b948348c146100a2575b600080fd5b34801561004557600080fd5b50610060600480360381019061005b919061027a565b6100be565b60405161006e9291906102f7565b60405180910390f35b34801561008357600080fd5b5061008c610108565b6040516100999190610320565b60405180910390f35b6100bc60048036038101906100b7919061027a565b61012c565b005b600181600a81106100ce57600080fd5b600202016000915090508060000154908060010160009054906101000a900473ffffffffffffffffffffffffffffffffffffffff16905082565b60008054906101000a900473ffffffffffffffffffffffffffffffffffffffff1681565b600a8110801561013d575060008110155b61014657600080fd5b600073ffffffffffffffffffffffffffffffffffffffff16600182600a81106101725761017161033b565b5b6002020160010160009054906101000a900473ffffffffffffffffffffffffffffffffffffffff1673ffffffffffffffffffffffffffffffffffffffff16146101ba57600080fd5b600181600a81106101ce576101cd61033b565b5b60020201600001543410156101e257600080fd5b33600182600a81106101f7576101f661033b565b5b6002020160010160006101000a81548173ffffffffffffffffffffffffffffffffffffffff021916908373ffffffffffffffffffffffffffffffffffffffff16021790555050565b600080fd5b6000819050919050565b61025781610244565b811461026257600080fd5b50565b6000813590506102748161024e565b92915050565b6000602082840312156102905761028f61023f565b5b600061029e84828501610265565b91505092915050565b6102b081610244565b82525050565b600073ffffffffffffffffffffffffffffffffffffffff82169050919050565b60006102e1826102b6565b9050919050565b6102f1816102d6565b82525050565b600060408201905061030c60008301856102a7565b61031960208301846102e8565b9392505050565b600060208201905061033560008301846102e8565b92915050565b7f4e487b7100000000000000000000000000000000000000000000000000000000600052603260045260246000fdfea2646970667358221220ead99efcb81a28aafbe0047a3447d495d3b81b327e0ca20957017052316bfd9464736f6c63430008110033",
  "immutableReferences": {},
  "source": "// SPDX-License-Identifier: MIT\r\npragma solidity >=0.4.22 <0.9.0;\r\n\r\nuint256 constant TICKET_TOTAL = 10;\r\n\r\ncontract ConcertTickets {\r\n    address public owner = msg.sender;\r\n\r\n    struct Tickets {\r\n        uint256 price;\r\n        address owner;\r\n    }\r\n\r\n    Tickets[TICKET_TOTAL] public tickets;\r\n\r\n    constructor() {\r\n        for (uint256 i = 0; i < TICKET_TOTAL; i++) {\r\n            tickets[i].price = 100; //0.06121 ETH\r\n            tickets[i].owner = address(0x0);\r\n        }\r\n    }\r\n\r\n// User buys the tickets and has parameter values. \r\n    function purchaseTicket(uint256 _index) external payable {\r\n        require(_index < TICKET_TOTAL && _index >= 0);\r\n        require(tickets[_index].owner == address(0x0));\r\n        require(msg.value >= tickets[_index].price);\r\n        tickets[_index].owner = msg.sender;\r\n    }\r\n}\r\n",
  "sourcePath": "C:\\Users\\bitta\\OneDrive\\Desktop\\ConcertTickets\\contracts\\ConcertTickets.sol",
  "compiler": {
    "name": "solc",
    "version": "0.8.17+commit.8df45f5f.Emscripten.clang"
  },
  "schemaVersion": "3.4.16",
  "updatedAt": "2023-09-17T19:47:38.728Z",
  "networkType": "ethereum",
  "devdoc": {
    "kind": "dev",
    "methods": {},
    "version": 1
  },
  "userdoc": {
    "kind": "user",
    "methods": {},
    "version": 1
  }
}